:020000040800F2
:1000000030140020C1010008B32C0008BD290008ED
:10001000B12C000819030008D150000800000000AE
:100020000000000000000000000000005F36000833
:100030006103000800000000692D00086136000817
:10004000DB010008DB010008DB010008DB01000820
:10005000DB010008DB010008DB010008DB01000810
:10006000DB010008DB010008DB010008DB01000800
:10007000DB010008DB010008DB010008DB010008F0
:10008000DB010008DB010008DB010008DB010008E0
:10009000DB010008DB010008DB010008DB010008D0
:1000A000DB010008DB010008DB010008DB010008C0
:1000B000DB0100087D370008C9370008DB010008B4
:1000C000DB010008DB010008DB010008DB010008A0
:1000D000DB010008DB010008DB010008DB01000890
:1000E000DB010008DB010008DB010008DB01000880
:1000F000DB010008DB010008DB010008DB01000870
:10010000DB010008DB010008DB010008DB0100085F
:10011000DB010008DB010008DB010008DB0100084F
:10012000DB010008DB010008DB010008DB0100083F
:10013000DB010008DB010008DB010008DB0100082F
:10014000DB010008DB010008DB010008D52C0008FA
:10015000DB010008DB010008DB010008DB0100080F
:10016000DB010008DB010008DB010008DB010008FF
:10017000DB010008DB010008DB01000800000000D3
:10018000DB010008DB010008DB010008DB010008DF
:10019000DB010008DB010008DB010008DB010008CF
:1001A0000000000000000000DB010008DFF80CD0B8
:1001B00000F02AF8004800474151000830140020A0
:1001C0000648804706480047FEE7FEE7FEE7FEE7F1
:1001D000FEE7FEE7FEE7FEE7FEE7FEE72937000859
:1001E000AD01000840EA01039B0703D009E008C9FC
:1001F000121F08C0042AFAD203E011F8013B00F8EC
:10020000013B521EF9D27047064C074D06E0E068EC
:1002100040F0010394E8070098471034AC42F6D34D
:10022000FFF7C8FFF85300081854000870B58C1881
:1002300010F8015B15F0070301D110F8013B2A11FA
:1002400006D110F8012B03E010F8016B01F8016BE7
:100250005B1EF9D12B0705D40023521E0DD401F8E3
:10026000013BFAE710F8013BCB1A921C03E013F8AC
:10027000015B01F8015B521EF9D5A142D8D30020E1
:1002800070BD00000146014801F0B9BCD402002055
:10029000014801F08DBC0000D402002038B50120D7
:1002A0008DF800009DF80000012801D0012038BD24
:1002B0000749084801F0FDFD040006D14FF4006134
:1002C000044801F04DFF00B10124204638BD000074
:1002D000B8050020D40200201CB5DDE90414CDE9E6
:1002E00000140146034801F067FE002800D00120F9
:1002F0001CBD0000D40200201CB5DDE90414CDE9CA
:1003000000140146034801F05BFF002800D00120E3
:100310001CBD0000D4020020FEE700207047002032
:100320007047000010B500220549064803F068FD3B
:1003300003490448091F03F05DFD002010BD0000C3
:1003400028000020000C002010B50146034803F0EF
:1003500051FD024803F032FD002010BD000C0020CA
:100360007047FEE7002200F001B8000030B50E4BE8
:10037000054601205C7A012C15D8587A00241C54BB
:10038000587A03EB800045605D7A03F108002A5437
:10039000587A421C5A72303008703A2048702F2028
:1003A0008870CC70002030BD240E00202DE9F04173
:1003B000040004D094F83800002518B107E00120AB
:1003C000BDE8F08184F83950204600F093F802200F
:1003D00084F838002068016821F00201016020687B
:1003E000016841F00101016000F0D2F907460326DF
:1003F00005E000BF00F0CCF9C01B0A2863D82068D4
:100400004068C007F6D020684168C90768D0A16974
:10041000012901683FD021F080010160E0690128D5
:10042000206801683AD021F040010160206A01286B
:100430002068016835D021F020010160606A012840
:100440002068016830D021F010010160A06A012805
:10045000206801682BD021F008010160E06A0128C2
:100460002068016826D021F004010160D4E902016E
:100470000843D4E90412114308436168491E084344
:100480002168C8612068016821F00101016000F065
:100490007FF907461CE041F08001BEE741F04001D2
:1004A000C3E741F02001C8E741F01001CDE741F07A
:1004B0000801D2E741F00401D7E700BF00F068F976
:1004C000C01B0A2804D904F8386F0320657077E749
:1004D00020684068C007F1D120684068C00703D099
:1004E000042084F838006AE7E563012084F83800C6
:1004F000002065E7F0B5214B0768DFF87CC018687D
:100500000322022409251E490026401C87B06745A6
:100510000FD11860012807D1086840F0007008600A
:10052000086800F0007005908DE854006946154891
:100530001CE0DFF854C067451CD10F6847F08067A6
:100540000F600F68012807F080670597186007D1D2
:10055000086840F000700860086800F000700590BE
:100560004FF440508DE8510008486946CDE9032515
:1005700000F01AF807B0F0BD006400400000002051
:1005800040380240000C0240006800400004024075
:1005900031B500F0FDF8044600F0FAF80099001BB0
:1005A0008842F9D338BD00002DE9F84FDFF890B14B
:1005B00000224FF001084FF0030A4FF00F090BF132
:1005C000040E00BF0B6808FA02F42340A3426ED168
:1005D0004D68022D01D0122D0ED1D50800EB850CEF
:1005E000DCF820505607F70E09FA07F6B5430E69F6
:1005F000BE402E43CCF82060066855000F790AFAF9
:1006000005FC07F0030726EA0C06AF4037430760F6
:100610004E68012E05D0022E03D0112E01D0122ECD
:100620000ED18768CE6827EA0C07AE403E4386604D
:100630004668A6430C79C4F30014944034434460E4
:10064000C4688E6824EA0C04AE402643C6604C6839
:10065000E4006FD53B4C256845F48045256024684F
:1006600022F0030504F480440094374C2E19D6F888
:10067000084895072F0F09FA07F5AC43334DA842F8
:1006800001D100252EE0324DA84201D1012529E0FB
:10069000304DA84201D1022524E02F4DA84201D1BE
:1006A00003251FE02D4DA84202D104251AE041E0A8
:1006B0002B4DA84201D1052514E02A4DA84201D1B5
:1006C00006250FE0284DA84201D107250AE0274D55
:1006D000A84201D1082505E0254DA84201D10925F0
:1006E00000E00A25BD402543C6F80858DBF8004065
:1006F0005D464E689C43F60300D51C432C60DEF833
:10070000004075464E689C43B60300D51C432C60E0
:100710000B4D08352C684E689C43F60200D51C43EF
:100720002C60074D0C352C684E689C43B60200D5F2
:100730001C432C60521C102AFFF444AFBDE8F88F14
:10074000003C0140443802400030014000000240BB
:100750000004024000080240000C02400010024069
:100760000014024000180240001C02400020024019
:10077000002402400069084000D00120704742690F
:100780004A40426170470AB1816170470904FBE742
:1007900001480068704700006800002070B5040040
:1007A00004D094F83D00002510B106E0012070BD92
:1007B00084F83C50204600F075F8242084F83D0071
:1007C0002068016821F00101016000F0ADFF3349AC
:1007D0002268B0FBF1F15160314A6368934206D957
:1007E0004FF4967359434FF47A73B1FBF3F12368D6
:1007F000491C1962616891420BD84900B0FBF1F2C3
:10080000C2F30B02042A01D2042019E0B0FBF1F07C
:1008100016E0A3689BB301EBC10202EB0112B0FB2F
:10082000F2F242F48042120530D04BB301EBC10228
:1008300002EB0111B0FBF1F040F4804040F40040C5
:100840002168C861D4E90701084321680860D4E938
:100850000310084321688860D4E905010843216832
:10086000C8602068016841F0010101602564202012
:1008700084F83D00256384F83E50002070BD00E000
:1008800006E001EB4102B0FBF2F2CCE70120D7E732
:1008900001EB4101B0FBF1F0D0E7000040420F0056
:1008A000A0860100F0B5164F01681222012303252E
:1008B00004261448144C87B0B9420DD129028DE8A2
:1008C0006E006946FFF770FE206840F4001020605B
:1008D000206800F4001010E00C4FB9420ED14FF424
:1008E00040618DE86E006946FFF75EFE206840F4C7
:1008F00080002060206800F48000059007B0F0BD03
:1009000000540040000402404038024000580040BB
:1009100002480168491C016070470000680000201F
:100920000B4810B5016841F400710160016841F4A1
:1009300080610160016841F480710160032000F072
:1009400075F8002000F006F800F018F8002010BD3F
:10095000003C024010B5044607484FF47A71006825
:10096000B0FBF1F001F0C7FD00222146501E00F05F
:100970003DF8002010BD00006000002010B50320ED
:1009800000F054F8002211466FF00B0000F02EF832
:10099000002211466FF00A0000F028F800221146EC
:1009A0006FF0090000F022F800221146501F00F0FD
:1009B0001DF800221146101F00F018F80022114601
:1009C000901E00F013F80022BDE810401146501EA2
:1009D00000F00CB800F01F02012191404009800096
:1009E00000F1E020C0F8001170470000F0B40E4B99
:1009F0001B680C46C3F30223C3F10705042D00D97D
:100A00000425191D072901D2002300E0DB1E012661
:100A100006FA05F1491E214099409E40761E164077
:100A20003143F0BC02F046B90CED00E0064900F09D
:100A3000070208684FF6FF03184040EA0220034A05
:100A400010430860704700000CED00E00000FA055C
:100A50000068416200207047F0B500680023446AD6
:100A600031B1856A4FF4827604EB15444D1E0AE0DD
:100A700044EA024181620FE006EB8307C7595B1C21
:100A800004EB1744DBB2AB42F6D34FF4807303EBB5
:100A9000810144EA024242500020F0BDD0F8EC034C
:100AA00003F0FEBBC1EBC10200EB8202D0F8EC0305
:100AB000526C03F06BBBC1EBC10200EB8202D0F8B9
:100AC000EC03D2F8042203F0B6BBD0F8EC0303F039
:100AD000E9BB10B504460A460B0601F07F00C0EBE7
:100AE000C00104EB810101D5383101E001F5FC7151
:100AF0000870D009487094F8B803012809D0012083
:100B000084F8B803206803F0FFFE002084F8B803DF
:100B100010BD022010BD70B50A460446090602F059
:100B20007F0005D5C0EBC00104EB8101383105E041
:100B3000C2EBC20104EB810101F5FC7100258D704F
:100B40000870D009487094F8B803012809D0012032
:100B500084F8B803206804F08EF884F8B8530020B5
:100B600070BD022070BD01F00F01C1EBC10100EBAF
:100B70008100B0F8100280B2704770B504460D468F
:100B80000E0601F07F00C0EBC00104EB810101D52E
:100B9000383101E001F5FC71ED0908704D708A6093
:100BA000CB7000D0C8800025022B00D10D7194F8C5
:100BB000B803012809D0012084F8B803206803F0A5
:100BC000FBFD284684F8B85370BD022070BD0000BC
:100BD00070B504460E4601F07F00C0EBC00104EB87
:100BE00081010025C1F80422C1E9833581F8F9515A
:100BF00081F8F801206901F5FC71012800D10A6132
:100C000094F8B80301280DD0012084F8B8037006C9
:100C1000227C206808D004F08FF800BF84F8B85315
:100C2000002070BD022070BD03F066FFF6E770B5CE
:100C30000D460446090605F07F0005D5C0EBC0014E
:100C400004EB8101383105E0C5EBC50104EB8101FE
:100C500001F5FC7101228A700870E809487094F867
:100C6000B803012807D084F8B823206804F035F8C9
:100C7000680602D007E0022070BD217C04F56F7287
:100C8000206803F0D9FF002084F8B80370BD70B568
:100C900004460E4601F07F00C0EBC00104EB810169
:100CA00000254A64C1E91335012381F8393001F880
:100CB000380F2069012800D10A6194F8B80301288F
:100CC0000BD084F8B8337006227C206807D004F07B
:100CD00033F884F8B853002070BD022070BD03F0D3
:100CE0000BFFF6E72DE9F84F04460068002605469D
:100CF00004F076F9002875D1206804F09AF90028EC
:100D000070D0206804F095F9800704D52068416907
:100D100001F002014161206804F08BF9010304F540
:100D20006F704FF0010B4FF0000A00904DD5206816
:100D300004F061F9074646E0F80742D0F1B22068B6
:100D400004F06FF98046C00728D005EB4611C1F8C2
:100D500008BB2069012811D1C6EBC60004EB800056
:100D6000D1F8101BD0F80022C1F31201511AC0F8BB
:100D70001012D0F804121144C0F80412F1B2204647
:100D8000FFF799FE2069012808D13EB9D4F80C027A
:100D900020B920680121009A03F04EFF5FEA087035
:100DA00007D5204600F06CFA05EB46110820C1F883
:100DB000080B5FEAC86004D505EB46111020C1F8A6
:100DC000080B7F08761C002FB6D1206804F031F99B
:100DD00040034FF040095ED5206804F005F907464E
:100DE000002656E07BE1F80751D0F1B2206804F00C
:100DF00009F98046C00724D0D5F834180BFA06F05C
:100E00008143C5F8341805EB4610C0F808B92069CD
:100E1000012807D1C6EBC60004EB8000D0E9102101
:100E200011444164F1B22046FFF73CFE20690128DD
:100E300007D136B9E06C20B920680121009A03F08F
:100E4000FBFE5FEA087004D505EB46110820C1F8E7
:100E500008095FEAC86004D505EB46111020C1F807
:100E600008095FEA486003D505EB4611C1F8089907
:100E70005FEA887004D505EB46110220C1F8080925
:100E80005FEA086003D53146204601F029FF7F085C
:100E9000761C002FA7D1206804F0CBF800280DDACB
:100EA000D5F8040820F00100C5F80408204600F039
:100EB000CDF92068416901F000414161206804F0EA
:100EC000B8F800050BD5D5F80808C00702D02046B1
:100ED00000F0F2F92068416901F400614161206885
:100EE00004F0A7F8C0044CD5D5F8040820F00100A0
:100EF000C5F804080021206804F042F80020FF2112
:100F000007E000BF05EB4012C2F80819C2F8081B41
:100F1000401C62688242F5D84FF0FF30C5F81808CF
:100F2000D5F81C0840F00110C5F81C08206B60B112
:100F3000D5F8840840F00B00C5F88408D5F84408BB
:100F400040F00B00C5F844080BE0D5F8140840F059
:100F50000B00C5F81408D5F8100840F00B00C5F8D0
:100F60001008D5F8000820F4FE60C5F80008217CC0
:100F70002068009A03F060FE2068416901F4805106
:100F80004161206804F055F880041CD5206803F006
:100F900053FC2068C16821F47051C160206804F0DE
:100FA00001F858B30320C4F81490E0602068C168C9
:100FB00041F4C051C160204600F038F92068416911
:100FC00001F400514161206804F033F8C00640D5B7
:100FD0002068816921F010018161D5F8208008F036
:100FE0000F00C0EBC00004EB8007C8F3434007F5D7
:100FF000FC7702280CD006281CD025E04FF40070A6
:10100000C4F80CA060612068C16841F41051D1E7B8
:1010100047F6F07118EA010F16D0C8F30A1290468D
:101020002846F96804F009F8F8684044F860B8699F
:10103000404408E008222846009903F0FEFFB96901
:10104000C8F30A100844B8612068816941F01001B2
:101050008161206803F0EDFF000707D5204600F00E
:10106000F9F82068416901F008014161206803F046
:10107000E0FFC00208D5F1B2204600F032F8206847
:10108000416901F480114161206803F0D2FF8002C0
:1010900008D5F1B2204600F028F82068416901F433
:1010A00000114161206803F0C4FF400007D52046CD
:1010B000FFF7F4FC2068416901F08041416120683C
:1010C00003F0B7FF40070AD520684568680702D5D6
:1010D0002046FFF7FAFC2068416829434160BDE8DB
:1010E000F88FD0F8EC0303F02FB9D0F8EC0303F03D
:1010F0002DB90000F0B58BB004004FF0000556D0BC
:10110000032084F8B903204600F054F8206803F067
:10111000EDFC04F1100128220F466846FFF762F843
:1011200094E80F0003F0A2FB0021206803F095FF74
:1011300001260020C5EBC50104EB810181F839606F
:1011400001F8385FCD80C8708860C8606D1C486148
:101150000F2DEFD300214FF4827300BFC1EBC1020A
:1011600004EB820203EB810582F8F90182F8F811A1
:10117000D18782F8FB01C2F80002C2F80402C2F86B
:101180000C0222685051491C0F29E7D32822394606
:101190006846FFF727F894E80F0003F005FC84F891
:1011A000B963206803F0F3FB00200BB0F0BD012011
:1011B000FBE7000030B5006887B0B0F1A04F2FD139
:1011C00000244FF40070CDE90004164D694628460E
:1011D0000294FFF7E9F94FF4C05000900220CDE9E6
:1011E0000104032003900A20049069462846FFF773
:1011F000DBF90D48016841F0800101600A481030B8
:10120000016841F4804101600068002200F48040E0
:10121000059011464320FFF7E9FB4320FFF7DAFB77
:1012200007B030BD000002403438024010B504461B
:10123000C068012100B90021D4F8EC0303F0DCF808
:10124000D4F8EC03BDE8104003F0A5B8D0F8EC03E7
:1012500003F0C0B8D0F8EC0303F0C2B810B50446F0
:1012600090F8B803012809D0012084F8B803206859
:1012700003F009FF002084F8B80310BD022010BD60
:10128000D0F8EC2300F56F71104603F0C8B810B524
:10129000044690F8B80301280CD0012084F8B80364
:1012A000206803F068FB206803F054FE002084F8F7
:1012B000B80310BD022010BD10B50446D0F8EC03F1
:1012C00003F0FAF82068D0F8001E41F00101C0F8E0
:1012D000001E206A002804D00248016841F006017F
:1012E000016010BD10ED00E02DE9F84F04460068E4
:1012F000A24EA34DC10747F6C07A4FF0E0474FF02A
:10130000010B4FF0000901D180074CD59D49C1F870
:101310006890FFF73DFA804606E000BFFFF738FA15
:10132000A0EB080002287DD828680001F6D42078B8
:10133000C10795480DD09AFAAAF26168B2FA82F212
:10134000914097FAA7F3A268B3FA83F39A40114346
:1013500001602178890716D5016897FAA7F201F094
:10136000E041B2FA82F2D1406268237B920142EA04
:10137000036242EA017101603068E16920F01F00F8
:10138000491E084330607F49C1F868B0FFF700FA92
:10139000804605E0FFF7FCF9A0EB0800022841D8E1
:1013A00028680001F6D52068410701D400077CD5E4
:1013B0007449C1F87090FFF7EBF9804606E000BF72
:1013C000FFF7E6F9A0EB080002282BD82868C043F5
:1013D0008000F5D520784FF0706241076B482CD51E
:1013E000016897FAA7F301F0E041B3FA83F3D9401B
:1013F0009AFAAAFC2369BCFA8CFC03FA0CF392FA61
:10140000A2F8D4F814C0B8FA88F80CFA08FC43EA39
:101410000C0397FAA7FCBCFA8CFC01FA0CF10B4305
:10142000036000E081E03168236A6FF0FF0C21F473
:10143000F8510CEB0323194331602178090722D5B9
:1014400001689AFAAAFC01F0706392FAA2F1B1FA6B
:1014500081F1CB402169BCFA8CFC92FAA2F201FA2C
:101460000CF1B2FA82F29340194397FAA7F3A269FA
:10147000B3FA83F39A40114301603068616A20F443
:101480004030084330603F49C1F870B0FFF780F941
:10149000064606E009E000BFFFF77AF9801B022844
:1014A00043D82868C0438000F6D42078800653D5FE
:1014B00033484E464030016841F080510160006879
:1014C000334D00F080500090286840F48070286010
:1014D000FFF75EF9074604E0FFF75AF9C01B022840
:1014E00023D82868C005F7D5274D143D286810F487
:1014F000407020D0218D01F4407181421BD02868BA
:10150000244920F44070C1F800B00E6028602868BB
:10151000C00710D0FFF73CF9064641F2883707E0D4
:10152000FFF736F9801BB84202D90320BDE8F88FD7
:1015300028688007F4D5A16A1148C1F30122083058
:10154000032A13D0016821F4F81101602868218D65
:10155000C1F30B01084328602078C00604D50E496A
:1015600094F82C00C1F8E0010020DFE702680B4B83
:1015700022F4F81219400A430260E7E78C3802406F
:101580000038024000004742843802408838024058
:1015900000700040400E474200104742FFFCFF0F22
:1015A0002DE9F047DFF8649105460F46D9F80000B1
:1015B00000F00F01F8B28046B94208D2014689F81E
:1015C0000010D9F8000000F00F00B84274D128785C
:1015D0004F4C800705D52068A96820F0F00008432B
:1015E00020602878C00759D049496868083901281F
:1015F0001AD002281BD0032819D0096889070029AE
:101600005ADA216821F0030101432160FFF7C0F895
:101610006968064641F28830012911D002291DD09F
:101620000329824627D035E009688903E7E709687E
:101630008901E4E7FFF7ACF8811B514501D926E0A9
:1016400082462068C0F381000128F3D126E000BF64
:10165000FFF79EF8811B514501D918E082462068AA
:10166000C0F381000228F3D118E000BFFFF790F823
:10167000811B51450BD82068C0F381000328F5D1A8
:101680000CE000BFFFF784F8811B514502D903200D
:10169000BDE8F087206810F00C0FF3D1D9F80010E6
:1016A000484601F00F01B94208D980F8008000686F
:1016B00000F00F00B84201D00120E9E72878400788
:1016C00005D52068E96820F4E050084320602878B8
:1016D000000706D52068296920F4604040EAC1006F
:1016E000206000F051F82168F02292FAA2F201F095
:1016F000F001B2FA82F2D140064A515CC840064974
:1017000008600020FFF726F90020C1E7003C0240F6
:1017100008380240E85300086000002001480068D3
:101720007047000060000020084809490068096807
:101730004FF4E05292FAA2F201F4E051B2FA82F2CE
:10174000D140044A515CC84070470000600000204E
:1017500008380240E8530008084809490068096849
:101760004FF4604292FAA2F201F46041B2FA82F2BE
:10177000D140044A515CC84070470000600000201E
:1017800008380240E8530008154810B5006810F00A
:101790000C01144823D0042921D008291FD1104955
:1017A000091F0A6802F03F030A68B0FBF3F00B68F8
:1017B00047F6C072134092FAA2F2B2FA82F2D34014
:1017C000096858434FF4403292FAA2F201F44031D2
:1017D000B2FA82F2D140491C4900B0FBF1F010BDD1
:1017E000083802400024F4002DE9F84F0546DFF8E0
:1017F000FC920078A9F1040BC007ABF1040449D0B6
:10180000D9F800104846C1F38101012908D00068C9
:10181000C0F3810002280AD1DBF80000400206D59F
:101820002068800336D5686800286ED032E068688A
:10183000B0F5803F10D0B0F5A02F206810D020F474
:1018400080302060206820F4802020606868A0B18B
:10185000FEF79EFF06460CE0206840F48030F4E777
:1018600040F480202060F7E7FEF792FF801B642899
:1018700071D820688003F7D50CE0FEF789FF064693
:1018800005E000BFFEF784FF801B6428F0D82068C5
:101890008003F7D42878964F80074FF0010A4FF065
:1018A000000841D5D9F80010484611F00C0F08D0B7
:1018B0000068C0F3810002280AD1DBF80000400272
:1018C00006D42068800713D5E86801281DD10FE0F1
:1018D000E868D8B1C7F800A0FEF75AFF064604E052
:1018E000FEF756FF801B0228C2D820688007F7D574
:1018F0002068F82292FAA2F22969B2FA82F220F064
:10190000F8009140084320600EE0ECE0C7F800804A
:10191000FEF73EFF064604E0FEF73AFF801B022872
:1019200019D820688007F7D42878000724D5714893
:10193000696989B1C0F800A0FEF72AFF064604E0F5
:10194000FEF726FF801B022805D868486C30006827
:101950008007F5D510E07AE0C0F80080FEF718FFA8
:10196000064604E0FEF714FF801B02286FD85F488C
:101970006C3000688007F5D42878400753D55B4861
:101980003830016841F080510160006800F08050FB
:1019900000905948016841F480710160FEF7F8FE3B
:1019A000064604E0FEF7F4FE801B02284FD852489A
:1019B0000068C005F6D54D4EA868683601280FD0DE
:1019C0000528306810D020F001003060306820F029
:1019D00004003060A868B8B1FEF7DAFE00900FE0AE
:1019E000306840F00100F4E740F004003060F7E7B1
:1019F000FEF7CEFE0099411A41F2883081426AD842
:101A000030688007F4D50EE0FEF7C2FE009007E0D4
:101A1000FEF7BEFE0099411A41F2883081425AD841
:101A200030688007F4D4A869E8B3D9F80010C1F38E
:101A30008101022957D00228C7F8608003D0FEF741
:101A4000A7FE05464AE0FEF7A3FE064605E042E093
:101A5000FEF79EFE801B02283DD820688001F7D447
:101A6000D5E90701084347F6C07292FAA2F2696A03
:101A7000B2FA82F29140AA6A4FF0FF3303EB5202AE
:101A80004FF4403393FAA3F3B3FA83F39A4011432C
:101A900008434FF0706292FAA2F2E96AB2FA82F257
:101AA0009140084300E01CE0CBF80000C7F860A0BC
:101AB000FEF76EFE054604E0FEF76AFE401B0228B4
:101AC00009D820688001F7D50BE000BFFEF760FE63
:101AD000401B022802D90320BDE8F88F206880014E
:101AE000F4D40020F8E70120F6E7000008380240AF
:101AF00000004742800E47420070004070B504006D
:101B000002D0607F10B106E0012070BD0020207778
:101B1000204600F041F8022060772168CA20486220
:101B2000216853204862204601F020F9FF21002857
:101B3000206803D0416204206077E5E78268154B96
:101B40001A4082602268906863681843D4E90435BB
:101B50002B43184390602268E06810612068026996
:101B6000238942EA034202612068C26822F08002AF
:101B7000C2602068026C22F4802202642068026C39
:101B8000A3691A4302642068416201206077002043
:101B900070BD0000BFFF8FFF00680349884202D17B
:101BA0000249012008607047002800403C0E47426F
:101BB00010B50446808C86B0000400900D20019082
:101BC00000214020CDE9020100010490694620680F
:101BD00001F023F90D21204601F034F968B9002005
:101BE00001F0FAF8C0F34320042804D0FF2804D001
:101BF000012006B010BD0020FBE70220F9E72DE927
:101C0000F04790F8202081F85620828CA1F85420CB
:101C1000826A0027120E93090B70C2F383034B7084
:101C200002F003028A70826A120CCA70028D120AD4
:101C30000A7190F828204A71C26A4FF6FF7A120E94
:101C40000AEA0212CA80C26ACB88C2F3074243EA98
:101C50001213CB8002F00F020A72828DC2F30723A7
:101C6000DA094A72C3F380128A72C3F34012CA724D
:101C7000C3F300120A7300224A73046A4FF0010989
:101C8000002C7DD0012CFCD0022C7AD02927C3F364
:101C900080144C769B065B0E01F81A3F10F8303F1B
:101CA0000C7844EAD31401F8014B03F07F0301F8E8
:101CB000013B50F8043F1B0EDC090C70C3F34114C8
:101CC0004C70C3F382048C709B071B0FCB7008C849
:101CD000CC78C3F3074344EA9314CC70C3F34014A5
:101CE0000C714A7103F001028A7130F8042CC2F3BE
:101CF0000722D309CB71C2F380130B72C2F34013D6
:101D00004B72C2F300138B72C2F38103CB7202F0E9
:101D100003020A7310F8042C52084A734B4681F8E8
:101D20000E9050F8082B120E0A7450F8082C120C62
:101D30000AEA02224A8230F8082CC2F307244A8AAF
:101D400022434A8210F8082C120641F8142F50F84A
:101D5000042C0C68120E44EA02420A6050F8042C6B
:101D60000C68C2F3074244EA02220A6030F8042CED
:101D70000C68C2F30722144310C110F8042C01E0D0
:101D800034E074E001F8012B0268120E01F8032B15
:101D90000268120C12060A6002880C68C2F307225D
:101DA00044EA02420A6002780C6844EA02220A60AD
:101DB00042680C6844EA126410C142680C78C2F3AD
:101DC000074244EA121401F8024B1207120D0A806E
:101DD00082880C88C2F30722144321F8024B007951
:101DE000400808704B703846BDE8F0879B071B0D14
:101DF0000B6190F82C300C6944EA83030B61036B90
:101E00000C691B0E44EA93140C61C3F3C2040C75F5
:101E100003F007034B75036BC3F307435C098C7531
:101E2000C3F38204CC759B075B0F0B76038E0C7E8D
:101E3000C3F3072344EAD3140C760D690E7EB61C57
:101E400009FA06F46D1CA5FB046C02FB04CC05FB2F
:101E500002C40D7A09FA05F8A6FB085C04FB08C465
:101E600006FB0244C1F85080C1E912540FE790F814
:101E70002C309B069B0A0B61036B0C691B0E44EA1A
:101E800003230B61036B0C69C3F307431C430C6111
:101E9000038E0C69C3F30723641C42F10005ED04B3
:101EA00045EA5435E404C1E912454FF400740C6569
:101EB000EDE670B586B000240E4605468DF80C4060
:101EC000047700F047F876200094CDE901402346DE
:101ED00022462146286800F087FF284601F02AFAAA
:101EE0008DF80C009DF80C0038B9284601F015F962
:101EF0008DF80C009DF80C0018B19DF80C0006B090
:101F000070BD31462846FFF77AFE8DF80C009DF82B
:101F10000C00A0B9B6F854006946000400900720F0
:101F200001904020CDE9020400010490286800F0EF
:101F300074FF0721284600F085FF8DF80C0005F19D
:101F4000100007C88DE8070095E80F0000F04CFF6F
:101F5000D3E70000F0B50068134987B0884221D16B
:101F600012480024016841F4006101600068022504
:101F700000F4006005904FF4F850CDE9000502AA86
:101F800003260C2782E8D00069460948FEF70CFBBF
:101F90000420CDE9000502AA694682E8D000054880
:101FA000FEF702FB07B0F0BD002C014044380240B0
:101FB00000080240000C02402DE9F04F8BB00446AF
:101FC0000D46DDE91478216800201646C862216AB2
:101FD000022903D10F02560A46EAC3561021CDE961
:101FE00000714021834608010291CDE903B06946A2
:101FF000206800F012FF1021204600F023FF002887
:102000006DD14FF0FF3A08FB07F0CDE905A007A915
:1020100090204FF0020981E8010A01200A9005A9E9
:10202000206800F0C0FEB8F1010F01D9122000E0D5
:102030001120CDE900606946206800F0EEFEB8F19D
:10204000010F1AD91221204600F0FCFE060046D1ED
:1020500040F22A3B2068416B11EA0B0F28D1406BFC
:102060000004F7D50027206800F0D4FE45F82700CB
:102070007F1C082FF7D32035ECE71121204600F014
:10208000E1FE06002BD140F22A6B2068416B11EA79
:102090000B0F0DD1406B0004F7D50027206800F02E
:1020A000B9FE45F827007F1C082FF7D32035ECE751
:1020B000406BC0050CD5B8F1010F09D9206A18B1E1
:1020C000012801D0022803D1204600F033F806464B
:1020D0002168486B000705D50820886304200BB0F1
:1020E000BDE8F08F486B800703D54846C1F83890AB
:1020F000F5E7486B800603D5202088630620EEE7CD
:10210000486B800504D54FF4007088630720E6E72C
:10211000574603E000F07EFE01C57F1E2068416B3C
:10212000890201D5002FF5D1216840F2FF50886364
:102130003046D4E710B586B0044600200C21CDE926
:1021400000014021CDE90210080104906946206891
:1021500000F063FE0C21204600F074FE06B010BDB6
:10216000FEB50446006A00250E46032805D030B1AE
:10217000012804D0022802D01FE02720FEBDB6F5BA
:10218000805F05D0B6F5006F04D03EB1262514E07F
:10219000272512E0204601F0C0F902E0204601F0B8
:1021A00083F9050009D1211DD4E905700EC90096F7
:1021B000CDE90170206800F017FE2846FEBD000042
:1021C0002DE9F04F8DB0044600260D468DF80060D5
:1021D000DDE91698216817463046CE62216A022949
:1021E00004D1570A4FF4007947EAC3571021CDE9CB
:1021F0000191402183460801CDE904B0039101A972
:10220000206800F00AFE1021204600F01BFE002886
:102210007BD1B8F1010F01D9192000E01820CDE9D8
:10222000017001A9206800F0F8FDB8F1010F01D993
:10223000192100E01821204600F004FE002864D196
:10224000411E069108FB09FA9020CDE907A0012064
:10225000CDE90AB0CDF824B006A9206800F0A3FDAE
:10226000B8F1010F52D940F21A3B2068416B11EAD4
:102270000B0F52D1406B4004F7D5AAEB0600202883
:1022800011D281074FEA900000D0401C8146002700
:1022900006E02946206800F0D0FD2D1D361D7F1C6C
:1022A0004F45E2D2F5E7002705EB8701206800F0F3
:1022B000C4FD7F1C082FF7D320352036D5E7486BA7
:1022C000400425D5AAEB0600202811D281074FEA49
:1022D000900000D0401C8146002706E02946206877
:1022E00000F0ABFD2D1D361D7F1C4F4510D2F5E7CC
:1022F0005FF0000705EB8701206800F09EFD7F1C62
:10230000082FF7D32035203602E01DE040F21A6B8B
:102310002168486B10EA0B0FD1D02068406BC005D4
:102320000BD5B8F1010F08D9206A18B1012801D0E6
:10233000022802D12046FFF7FDFE2168486B000706
:1023400005D50820886304200DB0BDE8F08F486BE8
:10235000800702D502208863F6E7486BC00603D5E4
:10236000102088630520EFE7486B800504D54FF403
:10237000007088630720E7E740F2FF5088636946F2
:10238000204600F039FF0028DED19DF80010072913
:10239000F5D00629F3D0D7E770B5040005D00025A5
:1023A000A56294F8510010B106E0012070BD84F8D8
:1023B0005050204600F030F8022084F85100206888
:1023C000016821F040010160D4E901010843D4E92A
:1023D00003121143084361690843218B01F4007122
:1023E0000843E1690843216A0843A16A0843216858
:1023F0000860A069042101EA1040616A084321686D
:1024000048602068C16921F40061C16165650120EF
:1024100084F85100002070BDF0B501682748002401
:1024200002250326052787B081420ED12448016882
:1024300041F4805101600068694600F480500590C5
:10244000E020CDE900051F481BE01D481E4A001F83
:1024500091421DD1016841F480410160006802AAE7
:1024600000F4804005900C20CDE9000582E8D00002
:1024700069461648FEF798F80820CDE9000514488B
:10248000694602AA82E8D000FEF78EF807B0F0BDD8
:10249000104A9142FAD1016841F40041016000689C
:1024A000029400F4004005903820CDE90005062094
:1024B000CDE9036069460848E6E7000000300140C6
:1024C000443802400000024000380040000802404A
:1024D000000C0240003C0040000402404FF0E021AC
:1024E0000428086903D020F004000861704740F018
:1024F0000400FAE7704710B5401EB0F1807F01D3A9
:10250000012010BD4FF0E02460610F21601700F042
:10251000D1FB0020A06107202061002010BD10B574
:10252000FFF7E8FF10BD7047704730B590F83820CE
:10253000012A20D0012280F83820022380F8393087
:1025400003685C6824F070045C6003685C680D6874
:102550002C435C6003689C6824F080049C600368E2
:102560009C6849680C439C6080F83920002180F801
:102570003810084630BD022030BD10B5040003D02D
:1025800094F8390010B107E0012010BD002084F854
:102590003800204600F00CF8022084F83900211D94
:1025A000206801F071F9012084F83900002010BD85
:1025B00008B5154A0168154891420ED1016841F0ED
:1025C000020101600068002200F002000090114644
:1025D0001D20FEF70BFA1D2010E00D4A914211D18B
:1025E000016841F0040101600068002200F004006D
:1025F000009011461E20FEF7F9F91E20BDE80840A4
:10260000FEF7E8B908BD0000000400404038024071
:10261000000800400168CA6842F00102CA60006810
:10262000016841F0010101600020704770B5044667
:1026300090F83800012817D0012584F8385002207E
:1026400084F839002068826822F0770222F47F4201
:1026500082600868502837D00DDC202859D005DC6E
:1026600088B3102841D151E0022070BD302853D0EA
:1026700040283AD13FE060282ED070280BD0B0F52A
:10268000805F03D0B0F5005F2FD110E02068816833
:1026900021F0070115E0CB68D1E90121206801F0A4
:1026A00053F92168886840F0770088601DE0CB68A6
:1026B000D1E90121206801F047F92068816841F4DF
:1026C0008041816011E01EE0CA684968206801F01D
:1026D0004DF95021206806E0CA684968206801F079
:1026E00056F96021206801F039F984F8395000204A
:1026F00084F8380070BDCA684968206801F036F96E
:1027000040212068EFE700212068ECE710212068D5
:10271000E9E720212068E6E730212068E3E77047F9
:1027200070B50446006801694FF00005C943890788
:1027300015D4C168C943890711D4E91E016101207C
:102740002076206880698007204602D0FFF7E7FFE7
:1027500004E000F098F8204600F096F8257620680E
:102760000169C943490717D4C168C943490713D44C
:102770006FF004010161022020762068806910F466
:10278000407F204602D0FFF7CAFF04E000F07BF84C
:10279000204600F079F8257620680169C9430907C9
:1027A00016D4C168C943090712D46FF0080101614A
:1027B000042020762068C0698007204602D0FFF7F9
:1027C000AEFF04E000F05FF8204600F05DF82576EB
:1027D00020680169C943C90617D4C168C943C9063D
:1027E00013D46FF010010161082020762068C069C1
:1027F00010F4407F204602D0FFF791FF04E000F084
:1028000042F8204600F040F8257620680169C94367
:10281000C90708D1C168C943C90704D1891E01612C
:10282000204600F032F820680169C943090609D43E
:10283000C168C943090605D46FF0800101612046D3
:10284000FFF771FE20680169C943490609D4C168D0
:10285000C943490605D46FF040010161204600F0EC
:1028600015F820680169C94389060BD4C168C943BA
:10287000890607D46FF0200101612046BDE8704051
:10288000FFF752BE70BD704770477047704770B514
:10289000040004D094F83900002510B106E00120AE
:1028A00070BD84F83850204600F022F8242084F8C7
:1028B00039002068C16821F40051C160204601F050
:1028C00079F82068016921F490410161206841692B
:1028D00021F02A0141612068C16841F40051C160C2
:1028E000E563202084F8390084F83A00002070BDA8
:1028F000F0B52A4F05682A4902230124032208263D
:10290000284887B0BD420CD10D6845F080450D6068
:10291000096801F080410591D1018DE81A006946EE
:1029200038E0214FBD4211D10D6845F000450D60E2
:1029300009688DE81C0001F00041CDE904610392B3
:102940004FEA0D01FDF730FE07B0F0BD174807262E
:1029500085420FD11248001D016841F0100101604D
:102960000068694600F010000590C0208DE819004D
:102970000F480FE00F488542E6D1086840F4003068
:1029800008600868694600F40030059060208DE812
:1029900019000948CDE90326D4E70000007800407B
:1029A0004038024000100240007C0040001001400E
:1029B0000004024000440040000C0240FEE700001A
:1029C0000C4810B50A490160102141600021816066
:1029D000C160016141618161C161016241628162E5
:1029E000C162FDF7E3FC002800D0FEE710BD000047
:1029F000006400408C0100200C4810B50A490160B9
:102A00001021416000218160C160016141618161EB
:102A1000C161016241628162C162FDF7C7FC0028A9
:102A200000D0FEE710BD000000680040CC0100208F
:102A300010B504490448FDF795FC0249491E087089
:102A400010BD000005000020D45300082DE9F04F10
:102A5000534887B00024016841F004010160016817
:102A600001F004010591016841F0800101600168F5
:102A700001F080010591016841F0010101600168E8
:102A800001F001010591016841F002010160016856
:102A900001F002010591016841F010010160016837
:102AA00001F010010591016841F008010160006822
:102AB000012500F008000590CDE900546946394829
:102AC0000294FDF771FD32200090CDE90154694672
:102AD00034480394FDF768FD03270226CDE900760C
:102AE00002AA4FF0080982E8900269462E48FDF7D5
:102AF0005BFD10200090CDE9015469462A480394FB
:102B0000FDF752FD0096CDE9016469462748CDE9FD
:102B10000345FDF749FD4FF4006ACDF800A0CDE96B
:102B20000154DFF88CB0694658460394FDF73CFD2C
:102B30003802CDE9000602940720CDE9037069460A
:102B40001C48FDF731FD4FF4E148CDF80080CDE998
:102B50000154694617480394FDF726FDC020CDE9CE
:102B6000000602AA694682E890020E48FDF71CFDA5
:102B7000002232210B48FDF706FE002210210A48F0
:102B8000FDF701FE002251465846FDF7FCFD0022EC
:102B900041460848FDF7F7FD07B0BDE8F08F00009B
:102BA00030380240000802400000024000040240A9
:102BB00000100240000C02400E4810B50C490160A4
:102BC0004FF48271416000218160C1604FF4007256
:102BD0000161C0E90512C1610162416281620A219D
:102BE000C162FFF7D9FB002800D0FEE710BD00004E
:102BF00000300140340300200E4810B50C4901603C
:102C00004FF48271416000218160C1604FF4007215
:102C10000161C0E90512C1610162416281620A215C
:102C2000C162FFF7B9FB002800D0FEE710BD00002D
:102C3000003800408C0300200E4810B50C4901609C
:102C40004FF48271416000218160C1604FF40072D5
:102C50000161C0E90512C1610162416281620A211C
:102C6000C162FFF799FB002800D0FEE710BD00000D
:102C7000003C0040E403002010B500220849094848
:102C800001F04FFA0849074801F043FC074905489D
:102C900001F0A8F8BDE81040024801F087BC000030
:102CA0002C000020000C002048010020140000200F
:102CB000FEE770470907090E002806DA00F00F004A
:102CC00000F1E02080F8141D704700F1E02080F84A
:102CD000001470470148FEF705B8000010060020F8
:102CE0002DE9F84F0F46C1EBC70100EB8105824685
:102CF0000668D5E91301441A286C3835A04200D281
:102D00000446E01C4FEA900806EB471916E0441A07
:102D1000A868A04200D20446E01C4FEA90089AF846
:102D200010000090A3B2FAB23046E96802F0BCF994
:102D3000E8682044E860A8692044A861D9F8180927
:102D400080B2404505D9D5E90501814201D200286C
:102D5000DDD134B90120D6F83418B8408143C6F823
:102D600034180020BDE8F88F7047000070B50446A5
:102D70000068C168490614D44FF0FF31C160FDF707
:102D800007FD05464FF47A7607E000BFFDF700FD2A
:102D9000401BB04201D9032070BD2068C0684006C6
:102DA000F4D5002070BD0A6842624A688262D1E9A7
:102DB00002231A43D1E904310B43C16A1A4321F0BB
:102DC000F7011143C162002070470069C0B270472B
:102DD000006800F00300704708B5024908440090FD
:102DE000006808BD142C014070B50DF1100C1143A2
:102DF0009CE870002343194329434268314347F656
:102E0000FF639A430A434260002070BD03210160C2
:102E100000207047D0F8800070470A688260D1E9CE
:102E200001231A43D1E903310B43C1681A436FF3FD
:102E30000B011143C160002070470968C0F8801081
:102E40000020704770B5054600680E460024416BAF
:102E500011F0450FFBD0416B490703D50321042234
:102E6000826304E0416BC90703D0012181630846F6
:102E700070BDFFF7AAFFB0422BD1296840F2FF5086
:102E800088630020FFF7A8FF284908424BD000289C
:102E900001DA1C2070BD410001D5092070BD810000
:102EA00001D50A2070BDC10001D50B2070BD010104
:102EB00001D50C2070BD410101D50D2070BDC101AF
:102EC00001D50E2070BD010201D50F2070BD410259
:102ED00001D5102070BD810201D5112070BDC10245
:102EE00001D5122070BD010301D5132070BD41032F
:102EF00001D5142070BD810301D5152070BDC1031B
:102F000001D5162070BD010401D5172070BD410404
:102F100001D5182070BD810401D5192070BD0007AE
:102F200001D51A2070BD204670BD000008E0FFFDED
:102F30000146002009684A6B12F0450FFBD04A6B2E
:102F4000520702D50320042207E04A6BD20702D0C1
:102F500001208863704740F2FF528A6370472DE971
:102F6000F0410446006815460E460027416B11F0FB
:102F7000450FFBD0416B490703D50321042282632F
:102F800004E0416BC90704D0012181630846BDE814
:102F9000F081FFF71AFFB04212D1216840F2FF50D2
:102FA00088630020FFF718FF10F4604F03D08104FE
:102FB00004D51320EBE7000C288007E0410401D57D
:102FC0001020E4E7000401D50F20E0E73846DEE7F3
:102FD0000146292009684FF480324B6B13F0450FEE
:102FE00007D14B6BA2F1010213F0450F01D1002A6A
:102FF000F7D14B6BC3F3800302B113B1032004225A
:1030000004E04A6B520602D5002040228A637047D2
:103010002DE9F04F91B000250F46069508261021A6
:10302000CDE90061402107950446CDE9021508016C
:103030000490A84669462068FFF7EFFE102120465D
:10304000FFF700FF002844D1A08C694600040090DF
:10305000372001902068FFF7E0FE37212046FFF778
:10306000F1FE002835D1401ECDE9080630204FF092
:103070000209CDE90A090120CDE90C80B246464695
:1030800008A92068FFF78FFE3320CDE9006069466C
:103090002068FFF7C2FE33212046FFF7D3FE06006B
:1030A00017D10DF1180B40F22A682068416B11EA24
:1030B000080F08D1416B8902F7D5FFF7ABFE4BF83B
:1030C00025006D1CF1E7416B090705D5C0F838A054
:1030D000042011B0BDE8F08F416B890703D5C0F81B
:1030E00038904846F5E7416B890603D52021816376
:1030F0000620EEE7416B890504D54FF4007181632A
:103100000720E6E740F2FF518163069800BA786035
:10311000079800BA38603046DBE770B586B00446E1
:103120000120ADF8140000252068FFF751FE58B3C8
:10313000206A04285DD000200221C0268DE84300CB
:1031400003904802049069462068FFF766FE204617
:10315000FFF7EEFE050018D1FFF73EFEA063042046
:10316000FFF73AFEE0630820FFF736FE20640C20EC
:10317000FFF732FE6064206A48B1012807D00628B4
:1031800005D0022803D011E0252006B070BD032031
:1031900001904020029069462068FFF73EFE05AA94
:1031A00003212046FFF7DBFE0500EED1206A04284C
:1031B0001FD0BDF814006062000400900920CDE922
:1031C000010669462068FFF728FE2046FFF7B0FE9B
:1031D0000500DAD1FFF700FEA0620420FFF7FCFD36
:1031E000E0620820FFF7F8FD20630C20FFF7F4FDF4
:1031F00060632846C9E7000070B586B00446002623
:103200000D460096A18C090401910D2102914021E7
:10321000CDE903160801059001A92068FFF7FDFD1F
:103220002068416B11F0450FFBD0416B490703D576
:1032300003210422826304E0416BC90704D0012109
:103240008163084606B070BDFFF7BFFD0D2838D179
:10325000216840F2FF5088630020FFF7BDFD009019
:10326000C0F3432028703249009808425DD000988E
:10327000002801DA1C20E5E7400001D50920E1E73C
:103280000098800001D50A20DCE70098C00001D535
:103290000B20D7E70098000101D50C20D2E7009859
:1032A000400101D50D20CDE70098C00101D50E20C9
:1032B000C8E70098000201D50F20C3E7009840023C
:1032C00001D51020BEE70098800201D51120B9E792
:1032D0000098C00201D51220B4E70098000301D580
:1032E0001320AFE70098400301D51420AAE7009807
:1032F000800301D51520A5E70098C00301D516204D
:10330000A0E70098000401D517209BE7009840042F
:1033100001D5182096E70098800401D5192091E77F
:103320000098000701D51A208CE730468AE7000094
:1033300008E0FFFD2DE9F04F87B0002504468DF829
:103340000050574EA846A94646F8A05F0068FFF710
:103350005DFD0120FDF71CF901273760BE02CDE9B4
:10336000045601950295039501A92068FFF755FDC4
:1033700023680021B0015A6BC2F3C01204E05A6BFB
:10338000401EC2F3C0120CD0002AF8D048B140F25F
:10339000FF5098638DF800109DF8000000287AD146
:1033A00001E00321F6E74FF4D570019008204FF0BB
:1033B000400ACDE9020A01A92068FFF72EFD204648
:1033C000FFF706FE8DF800009DF8000010B94FF0E1
:1033D000804927623727CDE9015701A92068FFF707
:1033E0001CFD37212046FFF72DFD8DF800009DF8CC
:1033F0000000D8B34FE00397CDE9015BCDE9045657
:1034000001A92068FFF709FD37212046FFF71AFDC3
:103410008DF800009DF8000048BB2249CDE9045614
:1034200049EA010001902920CDE9020701A920689D
:10343000FFF7F3FC20680021426B12F0450FFBD030
:10344000426B520702D50321042201E040F2FF52F1
:1034500082638DF800109DF8000040B90020FFF74E
:10346000BBFCC10F08F1010805D008E000E012E044
:10347000BB465746BFE74FF6FF718845BBD34FF6B3
:10348000FF72904503D31B208DF8000003E040003D
:1034900001D5022020629DF8000007B0BDE8F08F42
:1034A000008025420000108030B589B00025044618
:1034B000019528460295FFF78FFC800102D50E206A
:1034C00009B030BD01A92046FFF7A2FD0028F7D1C1
:1034D0000298C0031FD5A08C03A9000403903720D5
:1034E00004904020CDE90505000107902068FFF712
:1034F00094FC37212046FFF7A5FC0028E0D10620E8
:10350000CDE9035003A92068FFF787FC0621204678
:10351000FFF798FCD4E72520D2E730B589B0002525
:103520000446019528460295FFF756FC800102D516
:103530000E2009B030BD01A92046FFF769FD002823
:10354000F7D10298400320D5A08C03A90004039072
:10355000372004904020CDE9050500010790206840
:10356000FFF75BFC37212046FFF76CFC0028E0D119
:10357000022003900620049003A92068FFF74DFC69
:1035800006212046FFF75EFCD3E72520D1E70000A7
:1035900010B5064C01202070FCF780FE18B9207889
:1035A00020F001002070207810BD00006400002091
:1035B00010B51446114A96B001201278D20702D0F5
:1035C000032016B010BDA1B1012907D04FF400723D
:1035D00002290DD003290ED00420F2E76846FCF73B
:1035E00051FEDDE91201400A40EAC150206000E0CE
:1035F00022800020E5E72260E3E70000640000206D
:103600001CB508464FF40071CDE9001300245202A6
:103610002346FCF761FE00B1012420461CBD0000DA
:1036200010B5064C01202070FCF732FE18B9207846
:1036300020F001002070207810BD00006400002000
:103640001CB508464FF40071CDE900130024520266
:103650002346FCF751FE00B1012420461CBD7047F3
:1036600010B5FDF755F9BDE81040FEF758BF000052
:1036700030B52B489FB00025016841F080510160B2
:10368000006800F080501D902648016841F44041D8
:1036900001600068022400F440401D900920009061
:1036A0004FF4803001900120CDE90504800507909A
:1036B00008200890A820CDE9090407200B9068464F
:1036C000FEF792F800B1FEE718A90F2081E831005B
:1036D0004FF4A0501B904FF480501C90052118A867
:1036E000FDF75EFF00B1FEE720200C900001169070
:1036F0000CA8FDF7F9FD00B1FEE7FEF70FF84FF457
:103700007A71B0FBF1F0FEF7F6FE0420FEF7E6FE5C
:1037100000221146501EFDF769F91FB030BD0000B0
:1037200040380240007000401048016841F47001C8
:1037300001600F48016841F0010101600C4A00215D
:103740000832116002680B4B1A400260031D0A4ADE
:103750001A60026822F48022026005480C30016081
:1037600002495806803908607047000088ED00E083
:1037700000380240FFFFF6FE1030002470B50F48FD
:10378000FEF7CEFF0E4D10212846FCF7F8FF0D4C3A
:103790002068002807DD01212846FCF7EBFF0128FF
:1037A00001D10020206001212846FCF7E3FF00281A
:1037B00002D12068401C206070BD00003C04002045
:1037C00000080240100000202DE9F0412B48FEF7D0
:1037D000A7FF2B4C4FF480512A4D20684E00401C0F
:1037E0008F00206001281FD0022834D0032821D068
:1037F000042830D0052828D006282CD007282CD023
:1038000008280FD100222846FCF7BDFF00223146D0
:103810002846FCF7B8FF002239462846FCF7B3FFDC
:1038200000202060BDE8F08101222846FCF7ABFFB4
:10383000012217E001222846FCF7A5FF00223146AD
:103840002846FCF7A0FF002211E000222846FCF7E2
:103850009AFF0122F3E70022EDE700222846FCF759
:1038600092FF002231462846FCF78DFF012239469F
:103870002846BDE8F041FCF786BF00007804002030
:103880000C000020000C0240F0B50268234B244DD0
:10389000244E254F254C4FF0804C984209D060456E
:1038A00007D0A84205D0B04203D0B84201D0A04210
:1038B00004D122F0700E4A6842EA0E0298421BD0F0
:1038C000604519D0A84217D0B04215D0B84213D0E5
:1038D000A04211D0164DA8420ED0164DA8420BD0D2
:1038E000154DA84208D0154DA84205D0144DA84248
:1038F00002D0144DA84203D122F44075CA682A436D
:1039000002608A68C2620A688262984201D0A0425C
:1039100001D10969016301214161F0BD000001404D
:103920000004004000080040000C0040000401407A
:1039300000400140004401400048014000180040A0
:10394000001C00400020004010B5846842EA0322B9
:1039500024F47F440A432243826010BD826822F02F
:1039600070020A4342F007018160704710B5036A94
:10397000046A24F001040462846924F0F00444EA37
:10398000021423F00A020A438461026210BD10B5DA
:10399000036A23F0100303628369046A23F470430B
:1039A00043EA023224F0A00343EA0111826101627A
:1039B00010BD00002DE9F04104460068016921F4C2
:1039C0004052E168114301612168C86849F20C6204
:1039D00090432369A268E5691A4363692B431A433C
:1039E0000243CA602168486920F44072A06910430C
:1039F0004861E1696425B1F5004F9748974A21680D
:103A00004FF032083FD0914201D081427CD1FDF786
:103A1000A3FE00EBC00101EB001061688900B0FB60
:103A2000F1F6FDF799FE00EBC00101EB00106168B3
:103A30008900B0FBF1F0B0FBF5F06FF018014843DE
:103A400006EB800108EB0110B0FBF5F000F0F0068A
:103A5000FDF782FE00EBC00101EB001061688900F8
:103A6000B0FBF1F0B0FBF5F006EB0016FDF774FECD
:103A700000EBC00101EB001061688900B0FBF1F7B9
:103A8000FDF76AFED2E0914201D081423DD1FDF7BF
:103A900063FE00EBC00101EB001061684900B0FB60
:103AA000F1F0B0FBF5F00601FDF756FE00EBC001AA
:103AB00001EB001061684900B0FBF1F7FDF74CFE27
:103AC00000EBC00101EB001061684900B0FBF1F0B0
:103AD000B0FBF5F06FF01801484307EB800108EBED
:103AE000C100B0FBF5F000F0F80006EB4006FDF772
:103AF00033FE00EBC00101EB001061684900B0FB30
:103B0000F1F7FDF729FE3CE055E0FDF70DFE00EB77
:103B1000C00101EB001061684900B0FBF1F0B0FB9F
:103B2000F5F00601FDF700FE00EBC00101EB00100F
:103B300061684900B0FBF1F7FDF7F6FD00EBC0014D
:103B400001EB001061684900B0FBF1F0B0FBF5F04B
:103B50006FF01801484307EB800108EBC100B0FB90
:103B6000F5F000F0F80006EB4006FDF7DDFD00EB98
:103B7000C00101EB001061684900B0FBF1F7FDF7EF
:103B8000D3FD00EBC00101EB001061684900B0FB00
:103B9000F1F0B0FBF5F06FF01801484307EB80013E
:103BA00008EBC100B0FBF5F000F0070021683044DD
:103BB0008860BDE8F081FDF7B7FD00EBC00101EBC7
:103BC000001061688900B0FBF1F6FDF7ADFD00EB78
:103BD000C00101EB001061688900B0FBF1F0B0FB9F
:103BE000F5F06FF01801484306EB800108EB011077
:103BF000B0FBF5F000F0F006FDF796FD00EBC0011C
:103C000001EB001061688900B0FBF1F0B0FBF5F04A
:103C100006EB0016FDF788FD00EBC00101EB00107C
:103C200061688900B0FBF1F7FDF77EFD00EBC00194
:103C300001EB001061688900B0FBF1F0B0FBF5F01A
:103C40006FF01801484307EB800108EB0110B0FB4F
:103C5000F5F000F00F00A9E700140140001001404A
:103C6000D0F8180220B10021C0F81412084670479D
:103C70000220704770B50546D0F8184200F01DFBD1
:103C8000C4F80C02D5F8180248B1D5F81C12D4F8C3
:103C90000402CA6804F503719047002070BD022039
:103CA00070BD70B504460025812100F05FFA012146
:103CB000204600F05BFA8221204600F057FAD4F843
:103CC000180250B1D4F81C0204F50674406880470D
:103CD000206801F00DFA00202060284670BD10B564
:103CE000D0E9864159B194F80002FF2807D08B68CB
:103CF00094F8012221469847FF2084F80002002012
:103D000010BD00000A2101800048704770000020AB
:103D10004321018000487047C000002043210180FA
:103D2000004870477C000020432101800048704714
:103D3000040100202DE9F0410446007C00254FF4E9
:103D4000007670B3402302228121204600F000FB60
:103D5000402302220121204600F0FAFA0823032220
:103D60008221204600F0F4FA4FF4077001F0FCFACB
:103D7000C4F81802F0B10746D4F81C020068804766
:103D80000020C7F81402C7F81802207CD7F80422D4
:103D900090B140230121204600F0EDFA2846BDE80D
:103DA000F081FFE7334602228121204600F0D0FA5D
:103DB0003346CEE70125F1E73346EBE710B5D0F8FF
:103DC000181269B1027C002AD1F8042205D04023E0
:103DD000012100F0D0FA002010BD4FF40073F7E786
:103DE000022010BD02460220002902D00020C2F8A5
:103DF0001C127047D0F81802C0F804120020704757
:103E0000D0F81802C0F81022C0F80812002070473D
:103E100070B50646D0F8185208780C4610F06001CC
:103E200021D0202927D1E288AAB10006607807D5E1
:103E3000D6F81C128B6829469847E288294617E075
:103E400085F80002A07985F80102E288294630460B
:103E500000F038F80FE0D6F81C12607800228B686A
:103E60002146984707E060780A2804D103490122D7
:103E7000304600F041F8002070BD00006C000020CA
:103E800010B5D0F8142252689047002010BD134698
:103E900010B50A46002100F06EFA002010BD13464E
:103EA00010B50A46002100F010FB002010BD10B52F
:103EB0000446802100F0E0FA2046BDE810400021D1
:103EC00000F0DABA10B50323C0F80821C0F8F431C5
:103ED000C0F80C2113460A46002100F04CFA0020DD
:103EE00010BD10B505210023C0F8F4111A4619467B
:103EF00000F041FA002010BD10B502238261C0F825
:103F0000F431C26113460A46002100F0DEFA0020B7
:103F100010BD10B504210023C0F8F4111A4619464B
:103F200000F0D3FA002010BD10B50A46024903A0E4
:103F300000F0D4F8004810BD000A0020434443209C
:103F4000436F6E6669670000122008800048704762
:103F50004C00002010B50A46024903A000F0BEF84C
:103F6000004810BD000A002043444320496E746598
:103F70007266616365000000042008800048704795
:103F80004800002010B50A46024903A000F0A6F838
:103F9000004810BD000A002053544D6963726F65DC
:103FA0006C656374726F6E696373000010B50A46C6
:103FB000024903A000F092F8004810BD000A00205A
:103FC00053544D3332205669727475616C20436FBF
:103FD0006D506F727400000010B50A46024903A0CC
:103FE00000F07CF8004810BD000A0020303030306E
:103FF000303030303030314100000000F8B5044638
:1040000048880D46010A08294BD2DFE801F04A042E
:1040100009174A4A4048D4F81012207C0A6832E056
:10402000207C02260028D4F8140205D0C16A684614
:1040300088470146467041E0816AF8E7C0B2062829
:104040002FD2DFE800F003080D12171CD4F810126D
:10405000207C4A6817E0D4F81012207C8A6812E0AD
:10406000D4F81012207CCA680DE0D4F81012207C1D
:104070000A6908E0D4F81012207C4A6903E0D4F8F9
:104080001012207C8A6969469047014616E0207C20
:1040900038B9D4F81402416B68468847F5E7207CAC
:1040A00020B129462046FFF702FFF8BDD4F81402DC
:1040B000016B68468847014607204870BDF800003C
:1040C0000028F2D0EA88002AEFD0824200D90246C6
:1040D000ADF800202046FFF70FFFF8BD70B50023B4
:1040E00000281DD00446002502E06D1CEDB2641CC2
:1040F0002678002EF9D1022404EB45041480CC5418
:104100005B1C0322CA5400245B1C06E0CA545B1CDF
:10411000DAB28C54521CD3B2401C0278002AF5D17A
:1041200070BD10B580B1D0F8143213B10023C0F8BF
:10413000143209B1C0F81012012180F8FC1102708C
:1041400000F0C0F8002010BD022010BD10B5002402
:10415000D0F82002FCF7DFFC30B1012801D00228A2
:1041600001D0022400E00124204610BD10B5002437
:10417000D0F82002FCF7ADFC30B1012801D00228B4
:1041800001D0022400E00124204610BD2DE9F041B9
:104190001746044641B1D4F8140242698AB394F830
:1041A000FC01032842D043E0D4F8F411002504F1C7
:1041B0001400022933D1D0E902639E4207D9F31AD1
:1041C00083609AB239462046FFF769FE12E04068E4
:1041D000B0FBF3F103FB1101A1B9984212D3D4F85B
:1041E000F81188420ED2002211462046FFF757FEF2
:1041F000C4F8F85100231A461946204600F0BBF8CF
:104200000DE012E0D4F81402C16829B194F8FC0161
:10421000032801D1204688472046FFF762FE94F824
:104220000002012804D184F8005201E020469047A2
:104230000020BDE8F08170B51546044641B1D4F8C0
:10424000140282693AB394F8FC01032824D025E0D3
:10425000D4F8F41104F5827003291FD1D0E90221AA
:104260008A420BD9531A83600846834200D303461F
:104270009AB229462046FFF70AFE0FE0D4F814024E
:10428000016929B194F8FC01032801D1204688472F
:104290002046FFF73EFE01E020469047002070BD1B
:1042A0000020704710B5012180F8FC11D0F81422CD
:1042B000017952689047002010BDD0F82002FCF729
:1042C00052BC000010B5017849BB16490222C1F862
:1042D000EC03C0F820124FF0A040086004204860B2
:1042E0000020C1E90320C1E90502C861086201227A
:1042F0004862C1E90B200846FCF7FCFE08B1FCF758
:1043000030F880210748FCF7A3FB40220021054834
:10431000FCF7A2FB802201210248FCF79DFB002054
:1043200010BD0000100600200A0601F07F01D0F841
:104330002002C1EBC10100EB810002D590F83A00E8
:10434000704790F8FA0170470020704700207047CE
:1043500070B51D4613460024D0F820022A46FCF70B
:104360000CFC30B1012801D0022801D0022400E069
:104370000124204670BD10B50024D0F82002FCF7BF
:1043800027FC30B1012801D0022801D0022400E02E
:104390000124204610BD70B500220446402311467A
:1043A000FFF7D6FF40252B46002280212046C4F887
:1043B0001051FFF7CDFF0120256284F8FC01D4F8ED
:1043C000180228B1D4F81402217942682046904797
:1043D000002070BD90F8FD1180F8FC11002070479E
:1043E00010B590F8FC11032904D1D0F81412C96952
:1043F00001B18847002010BD01740020704710B53E
:104400000024D0F82002FCF729FF30B1012801D0A8
:10441000022801D0022400E00124204610BD70B51E
:10442000044600F50270054600F05FF80120C4F86C
:10443000F401B4F80E02C4F8F80194F8080210F080
:104440001F010AD001290DD0022910D000F08001EF
:10445000204600F011F8002070BD2946204600F0EB
:10446000AAF8F8E72946204600F08CF9F3E7294638
:10447000204600F019F9EEE710B50024D0F820022C
:10448000FCF7D5FB30B1012801D0022801D002246D
:1044900000E00124204610BD10B50024D0F8200211
:1044A000FCF7F5FE30B1012801D0022801D002242A
:1044B00000E00124204610BD90F8FC1180F8FD11A9
:1044C000042180F8FC110020704710B50024D0F8BA
:1044D0002002FCF7DCFB30B1012801D0022801D01A
:1044E000022400E00124204610BD0A7802704A78B8
:1044F00042708A78CB7802EB032242800A794B79AA
:1045000002EB032282808A79C97902EB0121C18002
:1045100070470246002011B1C2F814127047022001
:10452000704710B5D0F8142202241AB112689047CF
:1045300000B90024204610BD70B50E461A4D89788A
:1045400004462970012928D894F8FC01022802D0D9
:10455000032822D105E099B10320616084F8FC01B1
:1045600009E091B1606888420AD0C1B22046FFF7E5
:1045700087FC297861602046FFF7D3FF02280CD022
:104580002046BDE87040FFF7C4BC022084F8FC015F
:1045900020466160FFF774FCF2E731462046BDE833
:1045A0007040FFF784BC00008001002010B5FFF7C9
:1045B00073FF002010BD2DE9F04100264B78012546
:1045C00032460A2B43D2DFE803F03C5842514208FE
:1045D00005422A27FFF712FD63E004468888C8B920
:1045E000C888B8B9887800F07F0794F8FC010328E0
:1045F00010D084F8FE7139462046FFF700FF2046B0
:10460000FFF787FC1FB1022084F8FC0149E084F821
:10461000FC5146E020461AE0FFF78EFF41E0CB88D0
:10462000012B14D190F8FC31022B02D0032B0ED1B8
:1046300004E08260012200F1080114E00122011D62
:1046400011E090F8FC21022A04D0032A02D0FFF7DF
:104650002EFC26E0C560D0F8041209B10321C16028
:10466000022200F10C01FFF747FC1AE004464888DB
:10467000012816D1C4F804520BE0044690F8FC015E
:10468000022801D00328C5D14888012809D1C4F8DF
:104690000422D4F814028268204690472046FFF78F
:1046A00038FC3046BDE8F08170B50D4604462878E8
:1046B00000260979C0F34110012806D06878A0B31C
:1046C00001281FD003283FD107E0D4F8140229465F
:1046D000826820469047002070BD94F8FC010228B3
:1046E00017D003282CD1688828B921B1802902D09D
:1046F0002046FFF7C1FED4F81402294682682046FE
:10470000904713E094F8FC01022802D0032817D147
:1047100003E0C9B180291BD116E06888A0B948061A
:1047200004D02046FFF712FDE5E703E02046FFF73F
:10473000F0FB09E094F8FC01022807D003280BD015
:1047400029462046FFF7B3FB304670BD4806FBD034
:104750002046FFF791FEF7E7080601F07F0004EB23
:10476000001501D5143501E005F582752046FFF7E7
:10477000DBFD00B101202860022229462046FFF718
:10478000BBFBE1E770B5054690F8FC010C46032839
:104790000DD1207901280AD8D5F81402826828465C
:1047A0009047E08830B92846FFF7B3FB02E028467F
:1047B000FFF77DFB002070BD30B54C781D4B01220A
:1047C0000D78AA40012CD0F81C4818D044EA0242C7
:1047D000C0F81C280A7800EB4210D0F8002B120415
:1047E0000BD4D0F8002B0C89C4F30A042243C978F7
:1047F00043EA81410A43C0F8002B002030BD92B249
:104800001443C0F81C480C7800EB4410D0F8002981
:104810001204F2D4D0F800290D89C5F30A052A4301
:10482000C978890441EA84510A431A43C0F800292F
:10483000E3E7000000800010D0F800196FF30A01D0
:10484000C0F80019D0F80818C1F34101022905D1B8
:10485000D0F8001941F00301C0F80019D0F804188D
:1048600041F48071C0F804180020704770B5044608
:10487000049D06990D9801290CD0E06840F0400095
:10488000E060204600F024F84FF48030A063012D52
:1048900016D019E0A16B21F48031A163E1680B4AC5
:1048A0001140E160E16821F44011E160012803D189
:1048B000E06840F48010E060204600F009F8E6E788
:1048C000A06840F02000A060002070BDBFFFBDFFC9
:1048D00001220C4902E0521C8A420BD80369002BCA
:1048E000F9DA026942F001020261012204E0521C7D
:1048F0008A4201D9032070470369DB07F7D1002002
:1049000070470000400D030030B54D7801220C784F
:1049100002FA04F3012DD0F83C4816D024EA0343F0
:10492000C0F83C38D0F81C380C78A24023EA024288
:10493000C0F81C28097800EB4110D0F8001B21F4C6
:104940000041C0F8001B002030BD9BB29C43C0F862
:104950003C48D0F81C380C78A24092B29343C0F87F
:104960001C38097800EB4110D0F8001921F40041FF
:10497000C0F80019E7E710B5D0F8041821F00201DB
:10498000C0F804180320FBF703FE002010BD10B58B
:10499000D0F8041841F00201C0F804180320FBF716
:1049A000F7FD002010BD00002DE9F0470E4604463B
:1049B000DDE90A0A0025DDF83C80089FA16B41F47F
:1049C0000021A163B8F1000F03D1A16B41F40011E4
:1049D000A1634FF00009C4F8009ED4F80018C4F891
:1049E0000018012804D0D4F8000840F0030004E0C7
:1049F000D4F800080BB140F00100C4F80008102101
:104A0000204600F0BDFA204600F0AAFA4846C4F855
:104A10001098C4F814984FF0FF31C4F81818C4F86F
:104A20001C984FF0904CFF2310E000BF04EB4511A1
:104A3000D1F80029002A02DAC1F800C901E0C1F862
:104A40000009C1F81009C1F808396D1CAE42EDD853
:104A500000210FE004EB4112D2F8005B002D02DAD6
:104A6000C2F800CB01E0C2F8000BC2F8100BC2F88C
:104A7000083B491C8E42EDD8D4F8101821F48071FF
:104A8000C4F81018012F0AD11449C4F83018D4F80A
:104A90003018134A1143C4F83018D4F83018A06104
:104AA0006FF0804060611FB9A06940F01000A06104
:104AB000A0690C490843A061BAF1000F03D0A069B6
:104AC00040F00800A061B8F1010F03D1A0690649C8
:104AD0000843A0610020BDE8F087000000018000CD
:104AE0000300010000383C8004000040816821F090
:104AF000010181600020704730B54D784D4C0B7836
:104B000000EB4313012D28D0D3F8105B6FF312058F
:104B1000C3F8105B0B7800EB4313D3F8105B254010
:104B2000C3F8105B4B690BB18B684B610B7800EBE2
:104B30004313D3F8104B44F40024C3F8104B0B7804
:104B400000EB4313D3F8104B8D68C5F312052C43CB
:104B5000C3F8104B012A5CD061E04D69002DD3F8F9
:104B600010593BD06FF31205C3F810590B7800EBC6
:104B70004313D3F810592540C3F810594C698B687A
:104B80009C4200D94B610B7800EB4313D3F81049DA
:104B900044F40024C3F810490B7800EB4313D3F816
:104BA00010494D69C5F3120554EA0504C3F81049CC
:104BB000012A27D04A693AB1D0F834280C78012369
:104BC000A3401A43C0F83428097800EB4110D0F80C
:104BD000001941F00441C0F8001929E02540C3F84C
:104BE00010590B7800EB4313D3F8104944F4002418
:104BF000C3F810490B7800EB4313D3F810496FF357
:104C00001204D3E70B7800EB43130A69C3F81429A5
:104C1000DAE70B7800EB4313CA68C3F8142B097862
:104C200000EB4110D0F8001B41F00441C0F8001B1C
:104C3000002030BDFFFF07E00023C0F8103BD0F894
:104C4000103B43F40023C0F8103BD0F8103B43F076
:104C50001803C0F8103BD0F8103B43F0C043C0F835
:104C6000103B012905D1C0F8142B4FF08021C0F86A
:104C7000001B002070474B780A7800EB4212012B92
:104C80000BD0D2F8003B23F40013C2F8003BCA78E3
:104C9000032A17D0022A15D01DE0D2F8003923F4D8
:104CA0000013C2F80039CA78032A01D0022A12D1AF
:104CB000097800EB4110D0F8001941F08051C0F89C
:104CC000001908E0097800EB4110D0F8001B41F012
:104CD0008051C0F8001B002070474B780A7800EB29
:104CE0004212012B14D0D2F8003B002B05DBD2F886
:104CF000003B23F08043C2F8003B097800EB4110F1
:104D0000D0F8001B41F40011C0F8001B00207047D0
:104D1000D2F80039002B05DBD2F8003923F08043AC
:104D2000C2F80039097800EB4110D0F8001941F4BD
:104D30000011C0F80019E9E778B54E786FF06045CA
:104D4000834C0B7800EB4313012E2FD0D3F8106B5C
:104D50006FF31206C3F8106B0B7800EB4313D3F814
:104D6000106B2640C3F8106B4B69002B7DD08C680C
:104D700023445B1EB3FBF4F39BB20C7800EB4414AA
:104D8000D4F8106B05EAC3452E43C4F8106B0C78B9
:104D900000EB4414D4F8105B8E685E43C6F3120334
:104DA0001D43C4F8105B012A73D0B2E04E6966B3AC
:104DB000D3F810696FF31206C3F810690B7800EB93
:104DC0004313D3F810692640C3F810694C698B6807
:104DD0001C44641EB4FBF3F305EAC3440B7800EBF8
:104DE0004313D3F810592C43C3F810490B7800EB48
:104DF0004313D3F810494D69C5F312052C43C3F88A
:104E00001049CB78012B16D027E0D3F81059254054
:104E1000C3F810590B7800EB4313D3F8104944F44E
:104E20000024C3F810490B7800EB4313D3F8104962
:104E30006FF312040FE00B7800EB4313D3F8104923
:104E400024F0C044C3F810490B7800EB4313D3F8A7
:104E5000104944F00054C3F81049012A12D0CB780D
:104E6000012B17D04B692BB300E037E0D0F8343872
:104E70000D780124AC402343C0F83438CB78012BA3
:104E800008D017E00C7800EB44140B69C4F814390F
:104E9000F4E738E0D0F80838DB050B7800EB431373
:104EA000D3F8004902D444F0005401E044F08054A7
:104EB000C3F800490B7800EB4313D3F8004944F0E2
:104EC0000444C3F80049CB78012B3ED100928A8A72
:104ED00093B20A78C96800F0E7F836E00B7800EB87
:104EE0004313D3F8104B8D68C5F312052C43C3F858
:104EF000104B0B7800EB4313D3F8104B44F4002411
:104F0000C3F8104B4FE70B7800EB4313CA68C3F8A4
:104F1000142BCA78012A0FD1D0F80828D2050A78B4
:104F200000EB4212D2F8003B02D443F0005301E000
:104F300043F08053C2F8003B097800EB4110D0F8F1
:104F4000001B41F00441C0F8001B002078BD0000A8
:104F5000FFFF07E0816841F0010181600020704798
:104F6000002110220261054A491C914201D9032007
:104F700070470369DB06F7D400207047400D03003B
:104F80000022202343EA811101610549521C8A4213
:104F900001D90320704703699B06F7D400207047AE
:104FA000400D03000021D0F8082812F0060F15D09C
:104FB000D0F80828C2F34102012A0CD0D0F8082802
:104FC000C2F34102032A06D0D0F80808C0F341001A
:104FD000022802D002E0032100E0022108467047C7
:104FE000406900F001007047D0F81818D0F81C088C
:104FF000084080B27047D0F81818D0F81C08084054
:10500000000C7047D0F81038D0F83428CA4002F0AD
:10501000010243EAC21200EB4110D0F80809104027
:10502000704700EB4111D1F8081BD0F81408084074
:105030007047416980690840704710B503460020F9
:10504000D21C920803F5805303E01C6841F8044B1E
:10505000401C9042F9D3084610BD10B5C26822F03A
:10506000C042C260012901D021B107E0C16841F00E
:10507000005102E0C16841F08041C1603220FBF77D
:1050800087FA002010BDD0F8002822F4FE62C0F894
:105090000028D0F800284FF4FE6303EA01110A4308
:1050A000C0F800280020704730B50024039D6DB97A
:1050B000DB1C9B0800EB023000F5805004E000BFD1
:1050C00051F8042B0260641C9C42F9D3002030BDCF
:1050D000FEE702E008C8121F08C1002AFAD1704793
:1050E0007047002001E001C1121F002AFBD1704768
:1050F00010B5002821D0114B0022001F196803E0D1
:10510000814203D80A4649680029F9D152B113688F
:10511000841A9C4204D1006818441060104602E0D2
:10512000506000E0186039B102680B1A934203D155
:105130000B681A4402604968416010BD8401002078
:1051400086B0FBF7EDFBFEF793FAFDF77FFCFDF76A
:1051500037FCFDF751FC75487349754E002401601A
:10516000C0E901640D14C0E9034544618461C46170
:105170000462FBF713FB00B1FEE76C486D49543045
:105180000160C0E90164C0E9034544618461C46110
:105190000462FBF703FB00B1FEE764486649A830F0
:1051A000C0E900147F218160FF21C0E9031444613C
:1051B0008461FCF7A3FC00B1FEE75C485F49C8309E
:1051C000C0E900148460C460046144618461FDF737
:1051D000F3FCFDF711FDFDF72FFD5A4858494FF438
:1051E000E1360160C0E901640C25C460C0E90445F2
:1051F0008461C461FDF74BFB00B1FEE751485249A1
:1052000040300160C0E90164C460C0E904458461C4
:10521000C461FDF73CFB00B1FEE74A484B498030D2
:105220000160C0E90164C460C0E904458461C461EF
:10523000FDF72DFB00B1FEE742484549C030016053
:10524000C0E90164C460C0E904458461C461FDF73C
:105250001EFB00B1FEE7FDF7EBFB3A483D493C3849
:1052600001604AF21041C0E901144FF4FA61C0E94B
:105270000314FDF782F900B1FEE732484FF4805580
:1052800069463C380095FDF7D1F900B1FEE72D489D
:10529000049404A93C380594FDF747F900B1FEE7F2
:1052A00028482D49783801604BF68031C0E9011457
:1052B0004FF47A71C0E90314FDF75FF900B1FEE71E
:1052C0002048694678380095FDF7B0F900B1FEE74F
:1052D0001C48049404A978380594FDF726F900B118
:1052E000FEE7FDF7C9FC1D4D4FF400640022214686
:1052F0002846FBF748FA13487838FDF78BF9114830
:105300003C38FDF787F9164F164E0122202138460A
:10531000FBF739FA30680328F7DB012221462846DB
:10532000FBF731FAF1E70000005400400C020020C6
:10533000A08601000058004000280040002C0140D9
:1053400000780040B4040020007C004000100140C0
:1053500000440040000800400004004000100240EB
:105360000008024010000020F0B50B30154D20F071
:1053700007010024144A0FE003688B420BD38B42D1
:1053800005D95E1A43184768C3E9006700E043681F
:10539000136002C004E0021D10680028ECD1204612
:1053A000002802D1286808B10020F0BD064A07484D
:1053B0001060074A121A22F00702C0E900240120F7
:1053C0002860D7E78801002084010020340E0020E7
:1053D0003010002091350008213600080136000801
:1053E00041360008B1350008000000000102030446
:1053F00001020304060708091854000800000020F1
:105400008C0100002C020008D85400088C010020F8
:10541000A4120000E250000801141325031B081F0A
:10542000041A1B041A49048113493F1B0879041A02
:1054300085041AAD041AD9041A29041A550417044C
:105440000309041201140202021640830440573675
:1054500002010203011324F4290781130A06320210
:105460002A40141C090243271125C03209041B01DC
:10547000020B130524161001052401100901042450
:105480000202052406170107058203081C100904FF
:105490005D320A1D07050102432C07058107093803
:1054A000442A40072A8107112B0907440A22044491
:1054B0000A16FF4413353D1408A33C1408113E425C
:1054C000081ADF0C1A61041A7504C11A1D281A1172
:0854D000041A29041A0504C1A5
:04000005080001AD41
:00000001FF
